:020000040800F2
:100000000810002071010008412500089126000811
:100010004125000841250008412500084125000828
:100020004125000841250008043E0008412500083C
:1000300041250008B43D000841250008412500087D
:1000400041250008412500084125000841250008F8
:1000500041250008412500084125000841250008E8
:1000600041250008412500084125000841250008D8
:1000700041250008412500084125000841250008C8
:1000800041250008412500084125000841250008B8
:1000900041250008412500084125000841250008A8
:1000A0004125000841250008412500084125000898
:1000B0004125000841250008412500084125000888
:1000C0004125000841250008412500084125000878
:1000D0004125000841250008412500084125000868
:1000E0004125000841250008412500084125000858
:1000F0004125000841250008412500084125000848
:100100004125000841250008412500084125000837
:100110004125000841250008412500084125000827
:100120004125000841250008412500084125000817
:100130004125000841250008412500084125000807
:1001400041250008412500084125000841250008F7
:1001500041250008412500084125000841250008E7
:1001600041250008412500084125000841250008D7
:1001700008B50D4B83F30A880C4B09A1D1E90001A6
:10018000C3E9000100F090F800F0B2FA00F07EF848
:1001900000F056F800F068F800F02AFAAFF300809B
:1001A000A5EDF5FEA5EDF5FE0800002008100020E5
:1001B0000348044B834202D0034B03B118477047F6
:1001C000201000202010002000000000064B0749EE
:1001D000C91A891048BF0131491003D0044B0BB133
:1001E00001481847704700BF201000202010002051
:1001F0000000000010B5064C237843B9FFF7D8FF84
:10020000044B13B10448AFF300800123237010BDE9
:10021000B45D002000000000E83F000808B5054B71
:100220001BB105490548AFF30080BDE80840FFF762
:10023000CDBF00BF0000000020100020E83F0008F4
:10024000064B0748DA1C121AC11E22F0030299421B
:1002500088BF0022034903F071BD00BF20100020B9
:1002600010100020F43F0008064B0748DA1C121A51
:10027000C11E22F00302994288BF0022002103F030
:1002800055BD00BFB85D0020201000200348044A7F
:100290000449121A921002F054B900BF0440000839
:1002A00004400008B85D0020044B054A9A60D3F86A
:1002B000882042F47002C3F88820704700ED00E007
:1002C0000000000837B500F1006303F50043019317
:1002D000104B0D46984214461AD8019A0E4B9A427A
:1002E00016D2019A9B1AA34212D348B94FF0006369
:1002F0009B6A0A4A5969914202D9186900F0CCFAFE
:1003000022462946019803B0BDE8304002F055B9B5
:1003100003B030BDFF7FFFF700E007080080000852
:100320007FB56FF0006200F178419142034619D227
:100330006D460D4A02F110062C46106851680832CD
:1003400003C4B2422546F7D15A1E04A90F3311F84F
:10035000014D12F8010F844204D19A42F7D10120D5
:1003600004B070BD0020FBE7A03D0008F0B50368B5
:10037000044603F16043B3F5803F9FB033D84FF09C
:1003800000639B6A42681E6996422CD8344B9A429D
:1003900029D8456B06F14002AA425ED89D425CD83E
:1003A0002846FFF7BDFF002857D0284602F038F94D
:1003B00080B16B6973B1022B0ED1AB69C4F104013A
:1003C00019444FF0FF32204601F0DEF8254BC31AE6
:1003D000584258411FB0F0BD40F2046328460293D2
:1003E000FFF79EFF08B90020F4E74FF000635F6B52
:1003F0003846FFF795FF0028F5D0A6F150039F423D
:10040000F1D8284603A902F012F90028EBD0039D89
:10041000AE42E8D8AC42E6D8114B9D42E3D804A8DE
:1004200001F076F921462A1B04A803F0A2FA04A8D9
:1004300003F0A1FA01F07CF9044601F097F9234694
:100440000090294605F1200204A801F0E1F802908D
:100450000298B0FA80F04009BCE70120BAE700BF7B
:1004600000000808E320BBDE70B54FF0FF3290B00B
:1004700005460C4601F088F81C4B984232D14FF4E7
:1004800080621B4B00219A6601A81C2203F04EFCDF
:10049000184B29466846043C009303F0AAFB21460A
:1004A000684603F0A6FB684603F0ACFB02F07CF85C
:1004B0000646B8B940F2022000F09AF91C223146F3
:1004C00009A803F033FC0C4B294608A8089303F055
:1004D00090FB08A8214603F08CFB08A803F092FBD0
:1004E00002F062F8002010B070BD00BFE320BBDE58
:1004F0000090004001000543010006434FF4806274
:1005000030B50446154B91B09A6600211C2201A813
:1005100003F00CFC124B21466846009303F069FB84
:10052000684603F06FFB02F03FF8054698B940F2C9
:10053000022000F05DF91C22294609A803F0F6FB11
:10054000084B08A82146089303F053FB08A803F0C2
:1005500059FB02F029F8002011B030BD0090004096
:1005600000000243000003434FF4806210B50F4BBC
:100570008CB004469A6600211C2205A803F0D6FB25
:100580000B4B01940493012302930A4B01A904A885
:10059000039303F024FB04A803F034FB02F004F8F7
:1005A000B0FA80F040090CB010BD00BF00900040D0
:1005B0000000084304000020004870470080000845
:1005C00038B50C46054680B179B100230B60074B66
:1005D000036003F0D8FA01301EBF2B6843F4C04318
:1005E0002B60236843F40003236038BD0C1200081D
:1005F00013B54FF480303749374A4B6E5066486E1A
:100600004FF000414AF6CD345166344903F480334B
:100610004A6C0C6402F001024C6BE407FCD4012428
:100620002F494C60A1F500510C6BE407FCD50AB1D1
:100630002C4A0A640028A2BF4FF000412A4A5166A2
:100640001BB94FF48032284B5A664FF04023D3F841
:100650008420110606D44FF400621A67D3F8842070
:10066000D206FBD402F006F800F0B4F808B900F0A6
:1006700099F803F0D5F9044658B900F0ABF808B181
:1006800000F0A0F840F2012000F0DCF84FF4017017
:1006900018E000F09FF808B900F08CF800F0B4F80A
:1006A000012802D900F07EF8FEE700F0B9F80F4B00
:1006B0000193019B002B0ADC40F205439C42E5D1EB
:1006C00040F2032000F0BEF8002002B010BD019BF4
:1006D000013BEDE7008000400090004000400940F1
:1006E000006009403254FFFF00A0004000350C00BC
:1006F000012307B58DF806308DF807304FF0402301
:10070000D3F894305A060FD500F0B0F8A0F20220CA
:1007100080B2072808D8C923C340DB0742BF0023A3
:100720008DF806308DF807301B4B5B68013308D11C
:100730004FF4027000F05CF800238DF806308DF85D
:1007400007309DF807305BB11348FFF70FFE8DF8B7
:1007500006009DF806301BB94FF4027000F048F80F
:100760009DF80630ABB100F035F808B100F02AF87A
:100770004FF480330721094A0748936602F5203277
:10078000C2F82011A2F51C329366054B986001F067
:1007900075FF03B05DF804FB0060000800900040A6
:1007A00000ED00E04CF23C32014B5A80704700BF34
:1007B000000000204AF6C032014B5A80704700BF4B
:1007C000000000204FF20F02014B5A80704700BF1B
:1007D000000000204AF6C030044B5B8823F00F0372
:1007E0009BB21B1A58425841704700BF00000020BE
:1007F000044A08B51080FFF7EDFF10B94FF20F0360
:10080000538008BD0000002008B5FFF7E3FF18B1D2
:10081000024B588800F00F0008BD00BF0000002008
:1008200008B5FFF7D7FF48B1054A538803F00F0119
:100830000F2914BF013323F00F03538008BD00BFFD
:100840000000002008B5FFF7D3FFBFF34F8F054925
:10085000054BCA6802F4E0621343CB60BFF34F8FCD
:1008600000BFFDE700ED00E00400FA054FF20F01C4
:10087000084B5A888A4201D1188870473AB91B88B8
:1008800040F20220012B18BF4FF4007070474FF464
:1008900000707047000000204FF4803208B5044B10
:1008A0009A6601F0EDFBB0FA80F0400908BD00BF88
:1008B00000900040072BF8B506460F4614461D462B
:1008C00001D90020F8BD0121202001F06BFB01219E
:1008D000212001F067FB8CB144EA06039B07F0D1AD
:1008E0004FF48032064B31469A66284623463A46F4
:1008F00001F02AFCB0FA80F04009E3E70120E1E7CB
:1009000000900040134610B562B103439B070BD122
:100910004FF48034054B9C6601F0DAFBB0FA80F0AE
:10092000400910BD0120FCE70020FAE700900040DC
:100930000A4B186830B9B1F5205F0DD8012208487C
:100940001A607047012806D1B1F5005F03D8022272
:1009500004481A6070470020704700BF381000201C
:10096000B4350020B415002031B1044A1368002BBF
:10097000C4BF03F1FF331360704700BF381000207D
:1009800002232DE9F04F8846164600278BB0DFF88A
:10099000C490DFF8C4A005908DF81F309DF81F208B
:1009A000022A07D0002E48D041F20231012A18BF96
:1009B0000F4642E0D9F80010234DC1F5407308936B
:1009C000DAF80030214809930DF11F030293002348
:1009D000019309AB009308AA1D4B294402F067FE5E
:1009E0009DF81F3038BB63B3089BD9F800402946F7
:1009F0001C4424F0030B43465A46059800F068F95E
:100A000014F00304074605D02246284605EB0B01E7
:100A100003F072F9DAF800200999C9F800408A4217
:100A2000A2EB010404D90A482246014403F064F908
:100A3000CAF80040B2E741F2033738460BB0BDE8D0
:100A4000F08F41F20237F8E7B01000203C10002090
:100A5000B4130020AC100020B013002008B57022A1
:100A60000021064803F062F901220020044B1A70AD
:100A7000044B1860044B186008BD00BF3C100020F8
:100A8000B55D0020AC100020B01300202DE9F84324
:100A900099465B6880460F46144613B31B4B1D787E
:100AA00075B100221A7051F8043B05220366184BF9
:100AB000184800F061F830BB164802F0E5FC11253B
:100AC000154E641B3368C3F50073A3420CD3D6F8EC
:100AD00000801248224679194044444403F02EF91C
:100AE00034600020BDE8F883002249464046FFF705
:100AF00047FF0028F6D13368C3F50073A342E6D25E
:100B000041F20430EEE741F20530EBE7B55D00203D
:100B1000101000203C100020B0130020B41300205F
:100B20004B6870B505460C46E3B10122FFF728FF7C
:100B3000C8B90D4B186888B10C4E0428C0F10402E6
:100B40004FF0FF0188BF0022304403F0EFF8234646
:100B500004223146284600F0BBF820B90449054874
:100B600002F021FE002070BDAC100020B01000206B
:100B7000101000203C1000202DE9FF41E8460446FB
:100B800040461E4602F01BFE054660BB324641460B
:100B9000204602F0E7FD054628BB039AB2F1804FDC
:100BA00025D240F6FF731649B2F5800F28BF0B46D9
:100BB0009F1827EA03076169974238BF174611B1AA
:100BC000A36ABB4215D03046736898470023394664
:100BD0006361304633689847606150B931462046BA
:100BE00002F0B7FD0225284604B0BDE8F081054BB0
:100BF000DEE798E80F00A76284E80F00F3E700BF84
:100C0000FFFF0F00FFFF3F000068024BC31A58426E
:100C100058417047FD0707FD034A044B90420CBF43
:100C200018460020704700BFFD0707FD4C3E000836
:100C300030B5024600230C25054905FB03F4601876
:100C40000C59944203D001330D2BF6D1002030BD56
:100C5000603E0008F0B50023082787B0CDE90133D6
:100C600015463B46009704AA044602F0EBFD41F20C
:100C700003039842064623D194F8433053B13A46D1
:100C8000E06C04A902F075FE04AA3B461146A06C74
:100C900002F05EFE059A049B6A6094F843202B6084
:100CA00052B9094A934207D0084A934204D0082215
:100CB000E06C04A902F05DFE6B68236500236365A8
:100CC000304607B0F0BD00BFF70A0AF7FC0404FC89
:100CD0002DE9F04799465B6804460F469046002B85
:100CE0003FD08B0740D14FF000639B6A006E1B69B9
:100CF00081181D1DA9421BD31C33984218D2A8424B
:100D0000024638BF2A46994294BFC2EB010AC2EBA1
:100D1000030A101A3E18C5F16800104431465246C5
:100D2000204403F00BF85246FF21304602F0FEFF4C
:100D3000226E0F4B9A420BD80E4902EB08008842F4
:100D400006D39B1AFA58C4F880204FF0FF32FA50AD
:100D5000D9E9003542463946206EA847236E434400
:100D600023660020BDE8F08741F20200FAE700BFE9
:100D700004800008088000082DE9F04100254FF0AC
:100D8000FF3704468846164603F0200380F84230B9
:100D90001822FF21C0E91855A0F8405080F84350B0
:100DA000A0F8445080F84650C0F88870683002F0CF
:100DB000BDFF88222946C4E91286C4F88070C4F8B1
:100DC000847004F1900002F0B1FF084BC4F8207168
:100DD000C4E9463584F824512EB1304600F098FC21
:100DE0002846BDE8F08141F20B00FAE7000101015D
:100DF0002DE9F04FA9B0CDE9152305930023044652
:100E00000D464FF00109329E1793179A059B9A429F
:100E100001D30020D3E094F84630142BF6D8DFE855
:100E200013F06300B3005D0045002C003801F601AB
:100E30002C00EE012C007A012C00EE013903AC03EA
:100E400015002E01DD02DD026D02AA030027636D8D
:100E50000F2B47D8102318AA009320464023CDE932
:100E6000019715A902F0EEFC41F203030B900B9AD7
:100E70009A4200F0F6800B9B42E04FF00108D4E963
:100E800014739F422ED9FF1ADDE916329B1A94F88B
:100E90004020032F134440F2BE81032B00F2D28185
:100EA000204615A902F0ADFC002329E00127636D5F
:100EB000072B00F2FB80082318AA0093204640234A
:100EC000CDE9017715A902F0BDFC41F203030E90B4
:100ED0000E9A9A4200F057810E9B11E00027636D35
:100EE000072B22D901238FE118AA204615A9FFF765
:100EF000B1FE41F203020890089B934208D0089B80
:100F0000079341F20303079A9A423FF47EAF55E0FC
:100F1000199A1899226500226265AA4A914240F006
:100F20003F81022284F84620EAE7082318AA0093AA
:100F300020464023CDE9019715A902F083FC41F238
:100F400003030990099A9A4201D0099BD8E7189B9C
:100F500003F07F43B3F1407F05D0142384F846307B
:100F600041F20903CCE7199AD10742BF94F8423005
:100F700043F0010384F84230D305B0D4142384F83D
:100F8000463041F20A03BBE7204618AA15A9FFF72D
:100F900061FE41F203030A90DDF82880984511D0E4
:100FA000DDF8288041F20303CDF81C80079A9A42AD
:100FB0003FF42BAF079B0BB10023EB70079829B0D0
:100FC000BDE8F08F1898FFF733FE074628B91423C1
:100FD00041F2080884F84630E4E7437994F8242184
:100FE0009A4205D9142341F20E0884F84630D9E715
:100FF0000168754A914205D00289D00748BF013384
:1010000084F8243194F84230D9070DD53A8994F800
:101010004330920706D53BB1142384F8463041F2A1
:101020000108BFE7002BF7D018A8FFF7EDFD18B9AE
:101030003B7984F84630B5E71898C4F88C00FFF780
:10104000EBFD94F842309B06F2D50028F0D04368BF
:10105000002BEDD0204698470A900A9B002BE7D042
:10106000DDE7D4F8488000F09FFB80230221CDE922
:10107000000319AA0123404600F09EFAE7E6226D1C
:101080000123A265002284F84330E26584F84630EB
:10109000BBE600213C2219A81891012702F046FE68
:1010A000D4E91432934204D884F8467041F2030321
:1010B00026E7009318AA40232046CDE9017715A919
:1010C00002F0C0FB41F203030C900C9A9A4201D04B
:1010D0000C9B15E705F1080E73460DF1600C0DF140
:1010E0007808624603CA424518605960944603F185
:1010F0000803F6D1106818602B78704643F001039E
:101100002B7001F029FA0028CAD1142384F8463044
:1011100041F20C03F4E6D4F81C312C4F083BC4F820
:101120002031636D072BC1D808231AAA00932046EB
:101130003823CDE9019915A902F084FB41F203039C
:101140000D900D9A9A4201D00D9BD9E62B7843F071
:1011500004032B701B9BAB626B7858070FD5236D74
:101160001897C4F884300023636694F8453043F040
:10117000020384F84530F3680BB1102363660B2338
:1011800084F84630CDE72B7843F002032B70189B90
:101190006B60236D083B6B62199BB3F1006F05D048
:1011A000142384F8463041F20103A9E6042384F8AD
:1011B000463094F8453043F0010384F8453000236D
:1011C000636674E6EB17A603F90707F9EB17A65E4B
:1011D000042318AA009320464023CDE9017715A9DE
:1011E00002F030FB41F203030F900F9A9A4201D0B4
:1011F0000F9B85E6226D189B042A01D923660127DF
:10120000636D032BE4D9092384F846304EE70023AD
:10121000636607233AE79F423FF642AE9F4228BFEC
:101220001F46402318AA2046CDE90188009715A93A
:1012300002F008FB41F203031090109A9A420AD080
:10124000109B5DE6402F28BF40279F4228BF1F46C6
:1012500027F00307E5E794F846B0BBF1070F1BD072
:10126000042FC7F1040A88BF4FF0000A18AB52469A
:10127000FF21D81902F05AFDBBF1090FBA4419D168
:1012800033465246204618A9FFF722FD1090109BC6
:10129000002B3FF4F4ADD3E7D6F808A0BAF1000F65
:1012A000DED033683A46606E18A9D047636E3B447F
:1012B0006366E4E5BBF1040F7FF4E1AD6B78990759
:1012C0007FF5DDADF368002B3FF4D9AD626E042AE3
:1012D0000BD80AEB0203062B07D919AB9B1A1A6825
:1012E000C4F884204FF0FF321A6033685246F76822
:1012F000606E18A9B847636E5344D9E794F84270FA
:1013000017F0200707D0D4F88C00FFF785FC0746BC
:1013100000283FF448AF4FF0010A44E05BB357B3F5
:101320003B6943B320469847DDE916329B1A94F88F
:10133000402013448342FFF4B3ADD4E91421A2EB5F
:101340000108B8F1400F28BF4FF04008984528BF6A
:10135000984618AA40232046CDE901AACDF800807E
:1013600015A902F06FFA41F203031190119A9A4203
:1013700003D0119BC4E50120D6E794F842309A06C9
:1013800011D5002F3FF40FAFD7F808B0BBF1000F15
:101390003FF409AF33464246204618A9D84711907A
:1013A000119B002BE5D1D4E9142194F842309142ED
:1013B00003F02003B2D3002B3FF494AD002F3FF491
:1013C00091ADFB68002B3FF48DAD31462046984728
:1013D0001190119B002B3FF485ADCAE74FF00061DF
:1013E0008A6A496B1269503A91423FF6DCAE112B82
:1013F0000FD194F81831002B7FF474AD41F206033D
:101400001293129A9A4202D1142384F84630129B06
:1014100076E594F84430002B7FF464ADCDE90133D8
:10142000402318AA0093204615A902F00BFA41F2B6
:1014300003031290129A9A42E9D1E06C02F09BFAEF
:1014400094F81831A3B104F1B4030093E06C04F1F3
:10145000940320AA18A900F0DBF81290129BA3B104
:101460000023EB70142384F8463041F2060347E56D
:10147000D4F84C8000F05CF9074600F077F93B4661
:10148000009020AA404618A9E5E70123EB7084F8F4
:10149000443027E500234FF00408CDE9013318AAB2
:1014A00040232046CDF8008015A902F0CBF941F287
:1014B00003031390139A9A4202D0139B07937DE57E
:1014C000D4F888202E4B9A4205D0142384F8463055
:1014D00041F20503F2E794F8443033B9EB7014237A
:1014E00084F8463041F20603E8E7EB78002B3BD066
:1014F00094F84530DB0707D5F7682FB142464046E0
:10150000336804F18401B847236E6BB377685FB327
:101510004FF0FF3304F180080422414614A81493CD
:1015200002F0DAFB20B10422414633681548B8477F
:1015300004F168090422494614A802F0CDFB98B1D1
:101540004FF000639B6A1422D3F8108004F16C0101
:1015500008F10800D6E90037B847D6E90037042279
:10156000494608EB0200B8470123AB700E2384F80C
:1015700046300023A2E70023EB7041F207001EE58E
:10158000E320BBDE0480000830B50824094B0025A9
:101590005C66012403F5FE235C6001449D601A61D2
:1015A000DC60884201D1586A30BD10F8012B1A6204
:1015B000F7E700BF009000402DE9F04116464FF4D8
:1015C00080621D46114B00F1200804469A66404691
:1015D0000F4602F062FBDDE90612404602F061FBB5
:1015E000002384F8587063643368C4F85930736812
:1015F000C4F85D30B368C4F861302B0C6DBA84F860
:101600006530A4F86650BDE8F08100BF009000404E
:101610002DE9F04315464FF480621C46364B99B0D5
:10162000DDF880900E4607469A66002861D00029B2
:101630005FD0002D5DD0002C58D0304B304AB9F12E
:10164000000F14BF984690461C22002111A802F0FA
:101650006DFB2C4B414610A8109302F0CAFA2021D2
:1016600010A802F0C6FA0122274B019402920393BC
:10167000CDF810900592069354B1B9F1000F07D040
:1016800001A910A802F0A1FA04A910A802F09DFA7D
:10169000079701271C4C07A910A80897099402F086
:1016A00094FA0AA910A80A960B970C940D950E9718
:1016B0000F9402F08AFA0DA910A802F086FA10A879
:1016C00002F0A0FA114B00934FF098435A6CD202EB
:1016D000FCD55B6D40F2046003F470230093009B23
:1016E000002B08BF002019B0BDE8F083DFF81080A0
:1016F000AAE740F20160F6E7009000401F24008056
:101700001F24FC84000001062000002078563412BB
:101710004FF4806210B50446044B9A6602F02EF92D
:101720002046BDE81040002102F02CB90090004096
:101730004FF4806200B50B4B99B09A6600212022CD
:10174000684602F0F3FA40230021684608AA00F038
:101750009BFD20F010000128034818BF002019B09D
:101760005DF804FB009000404CE307084FF48062F2
:1017700000B50B4B99B09A6600212022684602F012
:10178000D5FA40230021684608AA00F07DFD20F02C
:1017900010000128034818BF002019B05DF804FBB1
:1017A000009000406CE307080048704786E2070895
:1017B0002DE9F3471446DDE90A920D461F4600283D
:1017C0004DD14CB313683F2B2AD8516851B32549EA
:1017D000002F14BFB846884603F03F061B1913605C
:1017E00022BF536801335360FEB93F2C0ED9A309C1
:1017F0002A46009341463B46002000F083F824F03F
:101800003F031D4404F03F0434B10026224629461C
:1018100009EB060002F092FA002002B0BDE8F08762
:10182000B846D9E7DFF83C80D6E7C6F1400A544510
:10183000ECD32946524609EB060002F07FFA012359
:10184000264400934A463B4641460020A6F1400408
:1018500000F058F83F2C5544D6D9B846C7E702489F
:10186000DBE700BF3C3F000880AFFFFF2DE9F04100
:101870001746146886B01E46E3008DF80F306309E2
:101880008DF80E30630B8DF80D30630D8DF80C3034
:1018900053680546DA0002EB54728DF80B2004F011
:1018A0003F045A09372C8DF80A204FEA53324FEA89
:1018B00053538DF80920884694BFC4F13802C4F10F
:1018C0007802CDE900178DF808300D490346002055
:1018D000FFF76EFF08222B460020CDE900870DEBB5
:1018E0000201FFF765FF284605F1200350F8042B9D
:1018F000984246F8042BF9D1002006B0BDE8F081EB
:10190000FC3E0008F0B517464FF480621D46254B9B
:1019100093B00E469A660446202200210AA802F0DF
:1019200005FA01204FF000520197029003920496AD
:1019300005900692079508900992002C2FD1189CCB
:10194000194BA40121460AA80A9302F052F9039BFD
:1019500004A91C430394069B0AA843F020030693A2
:10196000099B43F02003099302F02FF901A90AA86B
:1019700002F02BF907A90AA802F031F90AA802F02F
:1019800041F94FF098435A6CD202FCD55B6D13F4C9
:10199000702F14BF6FF06F00002013B0F0BD6FF018
:1019A0007100FAE700900040000401032DE9F041C6
:1019B000A2B0502204460D460EA8002102F0B6F94E
:1019C0003422002101A802F0B1F901A800F02EFA9A
:1019D000049B012B11D8002320466A1E9D424FEA2A
:1019E00082024FF0FF0108BF1A4640F8043B02F0A4
:1019F0009DF9002022B0BDE8F081AB425DD302F03A
:101A00000DF8059B0C220EA90646DF6802F086F849
:101A10000028EFD1DFF8AC800E9B434515D1109A1A
:101A20000EA9304602F07AF84FF0FF3210990EA856
:101A3000FFF7AAFD224B98422ED0FF212046AA0094
:101A400002F074F940F20650D4E737440C223846CD
:101A50000EA902F063F80028CCD10E9B434507D0B5
:101A6000FF212046AA0002F061F940F20550C1E7CB
:101A70000EA93846109A02F051F8059B3046D968F5
:101A800002F083F80028B5D13046109A0EA902F072
:101A900055F80028C3D0ADE7109E11A9103EB60836
:101AA000AE4228BF2E46B7003A46204602F046F91D
:101AB000AA1BFF219200E01999E740F2045099E730
:101AC000E320BBDE39528FE144222DE9F043A3B07D
:101AD0000C46814600210DEB020002F027F901239C
:101AE00050262E4A0021CDE90E2301A8342210965B
:101AF00002F01CF901A800F099F9049BA34249D314
:101B0000012B0AD8D9F8003040F204500133022BDF
:101B100038BF002023B0BDE8F08301F07FFF102C18
:101B200028BF1024059B4FEA8408DF6842464946D7
:101B30000744054611A802F001F9C4F110040EABE8
:101B400008F10C001844FF21A20002F0EFF84C212C
:101B50004FF0FF320EA8FFF717FDC043059B219001
:101B6000D968384602F011F80028D3D132463846F9
:101B70000EA901F0E3FF0028CCD1059B2846D968C7
:101B800002F003F80028C5D1324628460EA901F01C
:101B9000D5FFBFE740F20450BCE700BF39528FE1E8
:101BA00030B5ADF5137D4FF40D7205A9054640F231
:101BB000012401F084FF002105A801F057FFA04295
:101BC000F9D040F2032398422AD19DF814305907E6
:101BD00013D50F9800F03EFD78B18E9800F048F9CB
:101BE00058B1174B01AC0FCB84E80F00589B54F849
:101BF00035001844FEF782FC90B19DF814309A0726
:101C000011D54FF00062926A0699926891420AD902
:101C10008E9800F04BF918B10E990A48FEF724FC93
:101C200040F2054002E0DB0703D400200DF5137DF0
:101C300030BD08998E9800F05DF90028F5D1EFE7E6
:101C40005C3F00080080000831B10A4B5A688242AC
:101C500005D80023C1E9003340F20140704701304C
:101C600053F8302003EBC0035B6800200A604B6030
:101C7000704700BFD03F000870B40C4611461A46AA
:101C80000D4B5D68854210D9013003EBC0056D68CE
:101C9000A618AE420DD8A5420BD3954209D353F8EE
:101CA0003000204470BC01F039BF40F2014070BCEC
:101CB000704740F20240FAE7D03F000830B5CA68EA
:101CC0001B4B04469A420D46A3B019D1FEF774FC93
:101CD000D4F82432174A013352F83330D4F82C2286
:101CE0001344984208D38033984209D241F20D033D
:101CF000C4F8303223B030BD00F5C0309842F5D87A
:101D00008023D4F82C1202AAD4F82402FFF7B4FFDF
:101D100080232146009502AA04F12C00FFF768F801
:101D2000D4F82C32C4F830028033C4F82C32E1E706
:101D3000C5020008D03F000870B50D46002186B0EE
:101D40000DF1070302931E4B044616461160284608
:101D50001C22CDE903338DF80710059301F0E6FF4F
:101D60009DF8072052B994F87230132B06D0D4F89E
:101D700030321BB9D4E98A31994219D323789907B3
:101D800044BF61683160DB0709D504F1080304F141
:101D9000240153F8040B8B4245F8040BF9D162B9C6
:101DA000237840F20640002B18BF002006B070BD1B
:101DB000204602A9FFF782FFD2E70020F6E700BF26
:101DC000673A000870B40C4611461A460D4B5D6820
:101DD000854210D9013003EBC0056D68A618AE42EC
:101DE0000DD8A5420BD3954209D353F830002044B7
:101DF00070BC01F0A3BE40F2014070BC704740F2DD
:101E00000240FAE7D03F0008074B5A68824207D9E0
:101E1000013003EBC002516853F8300001F0B5BE49
:101E200040F20140704700BFD03F000870B5054642
:101E300088B0C0B14FF4403200236C46C0E90023A3
:101E40000A4B05F114061A785B680272C360684693
:101E500000F082F80FCC0FC694E80F0086E80F0060
:101E600005F114032B6108B070BD00BFD03F00081E
:101E700000B5ADF5137D4FF40D7205A901F01FFEFD
:101E800078B904238DF81530074BCDE90100039094
:101E900001A905A8049301F026FE0DF5137D5DF858
:101EA00004FB0020F9E700BFC50200084FF0006303
:101EB00000B59B6AADF5137D9B688B4204D300206F
:101EC0000DF5137D5DF804FB4FF40D7205A901F0CB
:101ED000F6FD0028F3D102238DF81530044BCDE92F
:101EE0000100039001A905A8049301F0FCFDE7E7B8
:101EF000C502000800B5ADF5137D4FF40D7205A9BC
:101F000001F0DDFD78B901238DF81530074B019004
:101F1000CDE90230049001A905A801F0E4FD0DF51A
:101F2000137D5DF804FB0020F9E700BFFF250008E2
:101F3000B1F5002F0BD800F17843B3F5002F06D888
:101F4000044B084498428CBF0020012070470020B9
:101F5000704700BF0000080870B504460646044DEF
:101F60000FCD0FC495E80F0084E80F00304670BD18
:101F7000B03F00084FF48032014B00209A66704752
:101F800000900040024BD86900F00100704700BF8C
:101F9000000003404FF48032014B00209A667047E6
:101FA00000A00040430905D0012B0CD0022B084BA8
:101FB00018BF002300F01F0039B103F58053012240
:101FC00082401A607047034BF4E703F50053F6E7CD
:101FD0006880004064800040F0B5114A114C124EF8
:101FE00000F00105E3695F0713D40DB9334213D143
:101FF00003EA00078F4207D10B4A1A40002A0CBFA0
:1020000000206FF00100F0BD013AEBD16FF002004B
:10201000F9E74FF0FF30F6E76FF00100F3E700BF9C
:1020200080969800000003400200010070B5134C38
:102030006061E3695B071ED40E4656F8043B8D18B9
:10204000A361AE420BD10423002121202361FFF7BD
:10205000C3FF58B9BDE870402120FFF7BDBF08217C
:102060000846FFF7B9FF10B10423236170BD56F88D
:10207000043BA361E5E74FF0FF30F7E700000340C2
:102080004FF4803238B50E4B0E4C9A66E56941F636
:10209000713315400122E3630B4B0021DA60022308
:1020A000606121202361FFF797FF10B92120FFF71E
:1020B00093FF0122054BDA600DB10023E36338BDC5
:1020C0000090004000000340001003400020034047
:1020D0002DE9F84315464FF48032184B89469A662D
:1020E00003F51C33DF690646174041F67132DA63A7
:1020F000012203F58053DFF84C80DA6055B9284699
:1021000001220F4BDA601FB10022A3F50053DA63FE
:10211000BDE8F88306F5005404EA0804A41BAC42A9
:1021200028BF2C46494622463046FFF77FFF00284D
:10213000E6D12644A1442D1BE0E700BF00900040FB
:102140000020034000E0FFFF2DE9F04F01274FF48E
:10215000302530268400DFF8C0C004F1402404F5A7
:102160008024CCF80470656000244FF48035DFF8DB
:10217000ACE0DFF8AC9006FB00E6F465346634674B
:10218000234CDFF8A0A0A56641F6713504F51C3498
:10219000D4F81C80E563E56807FA00F03D43E5608C
:1021A0004BB9E26818F4803F22F00102E26029D1C5
:1021B0000020BDE8F08F01F5005505EA09056D1A0C
:1021C0009D4228BF1D466161D4F81CB0AF081BF0CA
:1021D000040F19D1013F3F0147F060577766B2669F
:1021E000C6F86CA0CCF82400DEF834703842FBD07E
:1021F000084F294478630427CCF828002A44276133
:102200005B1BCDE7E363D3E74FF0FF30D1E700BFBF
:1022100000900040002004400010044000000440F2
:1022200000E0FFFF180003404FF48062014B0020E4
:102230009A667047009000404FF48062014B002086
:102240009A66704700A0004008B5B0B14FF48062B4
:102250000B4B9A6601F0D6FC4FF098435A6CD202B1
:10226000FCD54FF48062586D064B10F470209A66CE
:1022700004D0BDE8084001F0E2BC212008BD00BF49
:102280000090004000A000401FB5044660B35AB360
:10229000402B29D1930727D1042925D8DFE801F065
:1022A000031A24221E004FF4807310490B4323604D
:1022B0000023C4E90133E3610123019202930C4B33
:1022C000204601A9039301F08AFC2046FFF7BCFFDA
:1022D00004B010BD4FF400730449E7E705494FF41B
:1022E0008063E3E70149FAE72120F1E7010008FFF5
:1022F00040000020000008FF2DE9F04101290546BB
:102300000E4690461F4692B04AD8046824F0400317
:10231000802B02D0B4F5807F45D11C2200210BA870
:1023200001F004FD234A244B0121012E08BF13466E
:102330000A932B1D0193E408204B44F000540291B2
:102340000AA80394CDF81080059106930797089189
:1023500001A9099301F039FC04A90AA801F035FC90
:1023600007A90AA801F03BFC29680AA8C90801F0DE
:1023700040FC10210AA801F03CFCFFF755FFA8B96A
:102380000AA801F03FFC4FF098435A6CD202FCD5EA
:102390005C6DFFF751FF04F4702012B0BDE8F081CE
:1023A0006FF02000F9E76FF07100F6E74FF0FF30B3
:1023B000F3E700BF00010004000101041000002049
:1023C0002DE9F04F074689469846164699B082B1E6
:1023D00015683B6823F04002802A03D0B3F5807F64
:1023E00040F0A68000244C4505D306B1356000209E
:1023F0007BE01546EDE75DB1239B229A1B5D525DA4
:1024000001355340249A05F00F0513550134EAE7CE
:10241000A9EB040ABAF10F0F0BD8239B03EB040AB4
:10242000249B1C44239B03EB090BDA4560D14C46EB
:10243000D9E71C22294611A801F078FC3E4B3A68E6
:1024400010933B1D01930123D20842F000520293E6
:1024500003923A4ACDF8108005930692CDF81C807D
:1024600008930992239A249922442AF00F0A0A9287
:1024700021444AF000520B9310A80C920D9101A92F
:102480000E930F9201F0A1FB04A910A801F09DFB8F
:102490000AA910A801F099FB0DA910A801F09FFB53
:1024A00007A910A801F09BFB396810A8C90801F022
:1024B000A0FB514610A801F09CFBFFF7B5FE90B9B8
:1024C00010A801F09FFB4FF098435A6CD202FCD544
:1024D000586D544400F4702BFFF7AEFEBBF1000FB3
:1024E0009BD0584601E04FF0FF3019B0BDE8F08FA7
:1024F00055B1229A1AF8013B525D0135534004F858
:10250000013B05F00F0590E7424601213846229B2A
:10251000FFF7F2FE0028E8D108F1100212F8013DA1
:102520000133DBB21370002BE3D19045F6D1E0E725
:102530006FF01F00D9E700BF030300041000002064
:10254000FEE710B53AB1002350F8234041F823408C
:1025500001339A42F8D110BD38B54FF000639B6A41
:1025600005461A69546BA24201D3012038BD5B694C
:10257000A342FAD92046FDF7D3FE0028F5D02369FF
:1025800013F0FE000ED16A68236A9A42EED9102237
:1025900004F1280105F10C0001F09EFBB0FA80F077
:1025A0004009E3E70020E1E74FF098435A6CD2027C
:1025B000FCD5586D00F470207047C0F30C032DE972
:1025C000F04105460F4616460BB9FEF765F905F5CD
:1025D000005424F4FF5424F01F0405EB0608A04522
:1025E00007D8324639462846BDE8F0410223FEF7B7
:1025F00061B92046FEF750F904F50054EFE770B4D6
:102600004FF00065AD6A03462E69864206D86C69B4
:1026100013449C4202D370BCFFF7CFBF70BC70471D
:10262000036913F0FE0F0CBF01200020704738B57E
:1026300004460D46FDF774FE38B16369012B07D1DE
:102640002046FFF7EDFF10B1A46901202C6038BDD2
:102650000020FCE74FF0FF3313B5044601A80193B7
:10266000FDF782FF20B1019BA3422CBF0020012077
:1026700002B010BDFFF77EBCFFF78CBC03461846C6
:10268000016881F3088881F3098840688746FEE77E
:102690004FF40170FEF7D6B8B1F50D7F10B50446C2
:1026A0000FD34FF40D72002101F040FB04F5DE72F0
:1026B00004F5AA7104F12C000023BDE81040FEF7D8
:1026C0005BBB40F2052010BD13B5044600910146E6
:1026D0002C30FEF78DFBC4F8300218B141F207032D
:1026E000984204D1A37823B1E07800F2022002B02E
:1026F00010BD40F20120FAE72DE9F04387B00DF15B
:10270000080904460E4617460021102248461D4679
:10271000DDF8388001F00AFB00211C22C8F8001007
:10272000284601F003FB32463B462146CDF8009097
:1027300004F12C00FEF75CFB23789A0744BF626823
:10274000C8F80020DB0709D504F1080304F12402CE
:1027500053F8041B934245F8041BF9D1237840F247
:102760000640002B18BF002007B0BDE8F0834FF4EF
:102770000D707047436D002B14BF0120112070476E
:10278000826CF0B5531EB3F5887F18D8D0E9093CA8
:10279000D0E90B47C91A914228BF11464569866B9B
:1027A0002FB9C768A7EB040E8E4598BF07630C448A
:1027B000521AC462826419448B4201D14362F0BD53
:1027C000B34234BF644600249A1B2A44125DEA5483
:1027D0000133F1E72DE9F04F95B008910D92036BAD
:1027E000416A0793C36A0193079B002B40F0AA80BC
:1027F000019AC3689B1A089A521A9A4240F2A28020
:102800000B444FF0FF37D0E90DBA8568099307FAFA
:1028100005F5ED430E954568C36BAF40FD430F953D
:1028200000250293036C04690393436C0B95049396
:10283000036804F668250C93119504F264654369F6
:1028400012950C9D0593C5F10805836A026A1395DC
:102850000693D0E906360E9D019FB6F1807F05EA0A
:10286000070808EB0B1C3CBF13F8015B360234F879
:102870001C7038BF45EA0222F50A7D4395424FEAB3
:102880000B1E40F2C380C7F5006607EB561624F80E
:102890001C60019F079E04F66C6C3E4312D03E46BE
:1028A0000F9F37400C9E07FA06FE00294CD1069E6A
:1028B000013E059FBE5D139F3E414FF4C0677644C5
:1028C00007FB06CC019EBBF1060F06F1010601963F
:1028D00047D80126BBF1030F94BFABEB0B0BABF159
:1028E000030B0096009EB5F1807F38BF13F801EB13
:1028F0004FEA460638BF2D023CF8067038BF4EEA54
:1029000002224FEAD52E07FB0EFE964500960CEBF1
:1029100006081BD9C7F5006507EB5515AFB275461C
:10292000009EA8F80070FF2EDCD9059E009F77540A
:102930002E460131099D8D4240F236830D9D9D4208
:1029400089D831E3089B5CE74E1EB2E7009EA7EBF7
:1029500057170136A5EB0E05A2EB0E02BFB200968B
:10296000DEE7069FA1EB0A06514528BF0027BE46B9
:10297000059FBBF10A0F3E4416F80E9034BF0326A4
:102980000626ABEB060B01264FF4807800964FEA43
:102990004909009E09EA08070A9708EB06070A9EFC
:1029A000B5F1807F38BF13F801EB37440CEB4706D5
:1029B00038BF2D023CF8177038BF4EEA02224FEAAA
:1029C000D52E07FB0EFE1096009E96454FEA460652
:1029D00000960ED9C7F5006507EB5515AFB20A9DF5
:1029E00028EA05087546109E3780009EFF2ECED936
:1029F0009BE7009EA7EB57170136DDF82880A5EB73
:102A00000E05A2EB0E02BFB20096ECE7761BA7EB19
:102A10005717B6F1807F24F81C70A2EB05020BF16A
:102A2000C0093CBF13F8015B360234F8197038BF97
:102A300045EA0222F50A7D4395424FEA490C40F2ED
:102A40000581C7F5006607EB561624F81960049E49
:102A5000129F0A96039E0BF10C0B0496029ECDE981
:102A600002A6B5F1807F3CBF13F8016B2D02B7F8C9
:102A700000C038BF46EA0222EE0A0CFB06F6964278
:102A800040F2A3814FF0000ECCF500650CEB55151C
:102A90003D8007EB081704374FF008094FF0010C91
:102AA000B6F1807F38BF13F8018B4FEA4C0C38BF6A
:102AB000360237F80C5038BF48EA02224FEAD628CF
:102AC00005FB08F8904507EB0C0A40F2AE81C5F50E
:102AD000006605EB5616B5B24646CC45AAF800503E
:102AE000DED3AEEB090E0EEB0C05BBF10B0F009520
:102AF00040F2B382032D94BF4FEAC51E4FF49C6E83
:102B00004FF0010598BF0EF5587EB6F1807F4FEA71
:102B1000450538BF13F801CB05EB0E0838BF360268
:102B200034F8087038BF4CEA02224FEAD62C07FB73
:102B30000CFC944540F28381C7F5006607EB5616FE
:102B4000B7B266463F2D24F80870DED9403D032D0C
:102B50003FD905F0010C0D2D4FEA55074CF0020C42
:102B600000F283814FF00108013FC5F1004E0CFADD
:102B700007FC0EF2AF2EE6444FEA4E050B95C24617
:102B800065460A970B9FB6F1807F4FEA480838BF29
:102B900013F8019B07EB080E38BF360234F80EC05D
:102BA00038BF49EA02224FEAD6290CFB09F99145C0
:102BB00040F24E81CCF500660CEB56161FFA86FCEF
:102BC0004E460A9F24F80EC0013F4FEA4A0A0A9770
:102BD000D8D1079F05F1010A002F40F03C82019FE8
:102BE000AF4240F25782BBF1130F34BF4FF0070BD7
:102BF0004FF00A0B009F099D0237B5EB010CB84658
:102C000000F04882BC4528BFBC46069FA1EB0A05E0
:102C1000514528BF00273D44019F67440197A8EB19
:102C20000C070B97069F7F1BBC45059F0F4400F2C6
:102C30001C82A5EB0108059D614405EB010C17F80A
:102C400008E007F801EBBC45F9D173E6A7EB57178D
:102C5000761B521B24F81970079D019F3D4303D139
:102C6000012015B0BDE8F08FB6F1807F38BF13F8B2
:102C7000015B0CF1180938BF360234F8097038BF0F
:102C800045EA0222F50A7D43954250D9C7F5006610
:102C900007EB5616B5F1807F24F809600EF1F00EAF
:102CA00038BF13F8016BC64438BF2D0234F81E70CC
:102CB00038BF46EA0222EE0A7E4396421FD9C7F584
:102CC000006507EB5515069F24F81E50514528BF97
:102CD0000027BC46059FA1EB0A053D4415F80C50A2
:102CE000BBF1060F7D54019D88BF4FF00B0B05F122
:102CF000010598BF4FF0090B013101951AE6AD1B94
:102D0000921B029ECDF808A0B246A7EB571724F8F5
:102D10001E70049EBBF1060F0A96039E8CBF4FF0F7
:102D20000B0B4FF0080BCDE903A6119F99E6761B1C
:102D3000A7EB5717B6F1807F24F80970A2EB0502C4
:102D40000CF1300E3CBF13F8015B360234F80E7004
:102D500038BF45EA0222F50A7D43954206D9C7F5F8
:102D6000006607EB561624F80E60D2E7761BA7EB39
:102D70005717B6F1807F24F80E70A2EB05020CF114
:102D8000480C3CBF13F8015B360234F80C7038BFB6
:102D900045EA0222F50A7D4395420AD9C7F5006645
:102DA00007EB561624F80C60DDE9026702970396DC
:102DB000AFE7A7EB571724F80C70049F521B751B45
:102DC000029E0297039F0497F1E7AD1BACEB5C1CDE
:102DD000B5F1807FA7F800C0A2EB06023CBF13F854
:102DE000016B2D02B7F802C038BF46EA0222EE0A94
:102DF0000CFB06F696420BD9CCF500650CEB55158D
:102E000007EB08187D804FF0080E08F5827743E63F
:102E1000ACEB5C1C921BA7F802C04FF0100E4FF4F5
:102E2000807907F50177AE1B38E6A5EB5515A6EBC3
:102E30000806A2EB0802ADB20CF1010C4DE6A7EBBF
:102E40005717A6EB0C06A2EB0C02BFB2013579E6D0
:102E5000ACEB5C1CA6EB0906A2EB09021FFA8CFC8A
:102E600008F1010845EA0A05ABE6053FB6F1807FA7
:102E70003EBF13F8015B360245EA02227608921B38
:102E8000D51705F1010E013F05EA06050EEB4C0CC6
:102E90002A44EBD1B6F1807F3CBF13F8017B3602A8
:102EA0004FEA0C15B4F846C638BF47EA0222F70AC3
:102EB0000CFB07F7974204F2446E40F2AC80CCF56D
:102EC00000660CEB56161FFA86FC0226B7F1807FCF
:102ED000A4F846C63EF816A04FEA460C0EEB46098B
:102EE0003EBF13F8016B3F0246EA0222FE0A0AFBCC
:102EF00006F6964240F29980CAF500680AEB581827
:102F00001FFA88F8A9F80080B6F1807F3CBF13F85B
:102F1000017B36023EF81CA038BF47EA0222F70ABE
:102F20000AFB07F797424FEA4C080EEB4C0940F2B8
:102F30008780CAF5006C0AEB5C1C1FFA8CFCB7F1A9
:102F4000807FA9F800C038BF13F8016B3EF81890D5
:102F50003CBF3F0246EA0222FE0A09FB06F6964201
:102F60004FEA480C87BFC9F5006809EB5818A9EB70
:102F7000591845F008058FBF1FFA88F8921B1FFAF1
:102F800088F8BE1B6F1C2EF80C807FF422AE009CCC
:102F9000ABF10C0B04F589740B94DDE902A40294E7
:102FA000049C03940A9C0494B6F1807F3CBF13F800
:102FB000014B3602C0E906360B9B38BF44EA0222B9
:102FC0008364019B0262C362029B4162C363039BF1
:102FD000C0F838A00364049BC0F834B04364036BAA
:102FE00023B9C368019A934298BF03630899FFF716
:102FF000C7FB436A089A9342836C07D282690D9992
:103000008A4203D2B3F5897FFFF4E9ABB3F5897F38
:103010003CD8002025E6ACEB5C1CD21B1FFA8CFCD4
:10302000F71B45F00105032650E7AAEB5A18921B3F
:103030001FFA88F80CF1010C45F00205BE1B61E790
:10304000AAEB5A1CD21B1FFA8CFC08F1010845F0B0
:103050000405F71B73E7079FC2E5DDE902A50295AA
:10306000049D03950A9D0495C4E5B9460CEB070E33
:10307000059F17F80580069F09F8018B0135AF42BF
:1030800008BF0025CE45F3D1614453E44FF4897362
:103090008364BEE74162E3E52DE9F047D0E90753D9
:1030A00001278468D0F82C80A740D0F834C0013FB5
:1030B000066907EA080707EB0C1EB5F1807F36F8B2
:1030C0001E900A4407D2914280F0DC8111F8014B36
:1030D0002D0244EA0323EC0A09FB04F4A34278D24C
:1030E000056B06F66C6658EA050519D0D0E900E7CD
:1030F0000125BD40013D05EA080505FA0EF7456AC0
:10310000D0F8148005B9856A013D18F80550CEF154
:10311000080E45FA0EF53D444FF4C06707FB0566FF
:10312000BCF1060F20D801204000B4F1807F375A4F
:1031300007D2914280F0A68111F8015B240245EA92
:103140000323E50A7D43AB4229BF01302C46641BB3
:103150005B1BFF28E8D90120B4F1807F80F0228139
:10316000914228BF00201DE1876BD0F824C045693B
:10317000BC45ACEB070E2CBF0027876A05EB0E00A1
:1031800010F807C001204FF480774FEA4C0C07EA93
:103190000C0E3D187544B4F1807F36F8158007D2C7
:1031A000914280F06F8111F8015B240245EA03230C
:1031B000E50A08FB05F54000AB422BBF01302C4669
:1031C000774627EA0E0724BF641B5B1BFF28DCD968
:1031D000C1E7281B0CF1C00CB0F1807FA3EB040306
:1031E0004FEA4C0436F81CC007D2914280F04A8165
:1031F00011F8015B000245EA0323C50A0CFB05F543
:10320000AB4280F0A08002204FF0000E06F2646C0A
:10321000B5F1807FBCF8008007D2914280F0328106
:1032200011F8014B2D0244EA0323EC0A08FB04F4D5
:10323000A34280F0EB800CEB071C00270CF1040C80
:103240004FF008094FF001084FEA4808B4F1807FB9
:103250003CF808A007D2914280F0148111F8015B7C
:10326000240245EA0323E50A0AFB05F5AB4229BF20
:1032700008F101082C46641B5B1BC845E4D3BEF172
:10328000030F3FF669AFA7EB09074744032F88BF39
:103290004FF49C674FF001059CBFFF0107F558777D
:1032A0006D0006EB050CB4F1807F3CF807E007D217
:1032B000914280F0E78011F801CB24024CEA03230D
:1032C0004FEAD42C0EFB0CFC634529BF0135644644
:1032D000A4EB0C04A3EB0C033F2DE1D9403D032DDF
:1032E0007FF63AAF0D2D4FEA550700F2B18005F099
:1032F000010C013F4CF0020CC5F100450CFA07FC33
:1033000005F2AF25654406EB45064FF0010C4FEA88
:103310004C0CB4F1807F36F80CE007D2914280F07B
:10332000B18011F8015B240245EA0323E50A0EFB94
:1033300005F5AB4231BF2C46641B5B1B0CF1010C45
:10334000013FE4D108E7401B3444B0F1807FB4F87A
:1033500018C0A3EB050307D2914280F0938011F8C7
:10336000015B000245EA0323C50A0CFB05F5AB42ED
:1033700022D20EF1F00EB5F1807F36F81E4006D253
:1033800091427FD211F8010B2D0240EA0323E80A93
:103390006043834208D2B0F1807F71D2914234BF42
:1033A00003200020BDE8F0872D1A1B1A03204FF0E0
:1033B0000C0E06F6682C2BE7401BB0F1807FB4F8AA
:1033C00030C0A3EB050306D291425BD211F8015B3A
:1033D000000245EA0323C50A0CFB05F5AB42E5D321
:1033E000401BB0F1807FB4F84840A3EB050306D240
:1033F000914247D211F8015B000245EA0323C50A56
:103400006543AB4224BF5B1B451BCFE72D1BB5F1CA
:10341000807FBCF80280A3EB040306D2914231D234
:1034200011F8014B2D0244EA0323EC0A08FB04F4D3
:10343000A34205D20CEB071707F5827C0827FFE6AD
:103440001B1B10274FF480790CF5017C2C1BF9E62F
:10345000053FB4F1807F06D2914213D211F8015B8F
:10346000240245EA032364081D1BED0F013D25409E
:10347000013FA3EB0503ECD1042706F2446644E7C1
:1034800003208FE700208DE700230122C0E90B33E2
:10349000C0E9123243628365026570472DE9F74F38
:1034A0009846002704469DF83030D8F80060C8F8E8
:1034B000007000938B461546FFF762F90D9B1F7055
:1034C000A36CB3F5897F09D1236A13B901230D9A3F
:1034D0001370206A003818BF01201EE0E36C8BB126
:1034E000A36D5EB3042B1BD994F85C30002B40F025
:1034F000D780D4F85D20E36412BA22624FF0FF3225
:10350000A365E261636A5B4555D3A36CD3B9236AB3
:10351000F3B9042300200D9A137003B0BDE8F08FB7
:103520005A1CA26515F8012B234483F85C20D8F8B7
:103530000030013E0133C8F80030D1E7042BD3D866
:103540000323E7E7009B002B40F0A7800223E1E77D
:10355000009B002BFAD00123226D9AB1D4E90021FF
:1035600011444FF440728A400021206902F2367201
:103570008A4222D80122C4E91022C4E90E22002284
:1035800062632265A76D002F68D1132E1BD943B348
:10359000324629462046FFF77FFDF0B932462946DC
:1035A00004F15C0000F0CAFBA665D8F80030334493
:1035B000C8F80030C4E70023CEE74FF4806720F856
:1035C00011700131D4E73246294620460193FFF7B6
:1035D00063FD019B0028E1D00BB102285DD12A4692
:1035E00002E0A6F114022A4459462046A561FFF7DD
:1035F000F1F8002854D1A369D8F800205D1B2A44B3
:10360000C8F80020761B1D465AE715F80910013747
:10361000D15509F10109132F25D9A76504F15C0AD9
:1036200093BB524659462046C4F818A0FFF7D2F87B
:10363000B0BBA369A3EB0A039F4236D3FA1A9145A4
:1036400033D3D8F8001009EB0302D31B19443744D5
:10365000C8F800102B44BE1AA065D4E74FF000094B
:1036600004F15B02D7E7B145CFD104F15C0A3A46D9
:1036700051462046A7650193FFF70EFD019B88B9CF
:10368000D8F800304B4493E73A4651462046FFF7BE
:1036900003FD0028F4D00228C3D002230D9A137032
:1036A00001203AE7002BBCD0F5E70B2035E72DE9E8
:1036B000F04F89B0DDF848809A469DF84C300446BA
:1036C0000493D8F800308B460293002316461768FF
:1036D0001360C8F80030029B149A0793D4E90931AB
:1036E0008B4204BF00236362656A20464B1BBB42CA
:1036F00032BF0023049B7919CDE90032524607AB53
:10370000FFF7CCFE079A029B61699B1A0293D8F8D7
:10371000003003901344C8F80030636A5846A3EBA6
:103720000509294492444A46059300F007FB059B8E
:10373000CB44ED1A33682F444B443360039B23B9C9
:10374000B9F1000F01D0002FC5D1039809B0BDE831
:10375000F08F10B504464B6808462169984700234E
:10376000236110BD70B54FF440751646D1E90032A3
:1037700013449D400369044605F2367513B1436D49
:10378000AB420ED031462046FFF7E3FF30463368A8
:10379000690098472061B0FA80F0400965654000F3
:1037A00070BD0020FCE738B504460D46FFF7D1FF99
:1037B0006B682846616998470023636138BD042A15
:1037C00001D804207047D1F80130B3F5805F38BFCD
:1037D0004FF48053C3600A78E02AF2D80923B2FB81
:1037E000F3F303EBC301521AD2B202600522B3FB1A
:1037F000F2F2826002EB82029B1ADBB2436000208D
:10380000704770B5D1E90152AA4205D290F8403014
:103810002B449B1A402B10D9002012E00A6890F824
:103820004040D65C90F841200133224402F03F0230
:10383000013486548B6080F840408B689D42EDD8FF
:10384000012070BD2DE9F84390F840C017469E4610
:10385000D1E90123089DD21A6244954204460E46DE
:103860009DF824909DF828800AD9FFF7CAFF002808
:103870006CD1142341F2020084F84630BDE8F8838D
:1038800075455AD8002394F840200AB19D423AD198
:10389000D6E90121914201D29D4246D89D4252D1A2
:1038A00029463846D4F88820FDF76EFEC4F8880013
:1038B000B9F1000F04D02A463946E06C00F059F8FF
:1038C00094F84330B8F1000F06D08BB12B463A463E
:1038D0003946A06C00F03CF894F8433043B1E36DF6
:1038E000A26D2B449342E36524BF002384F8433048
:1038F000D4F81C3141F203002B44C4F81C31636D31
:103900002B446365BAE794F84120A25CFA5494F81A
:1039100041200133013202F03F0284F8412094F843
:103920004020013A84F84020ADE73268525CFA54F6
:10393000B26801330132B260AAE741F201001423F8
:1039400084F846309AE741F20200F8E7002095E754
:103950001FB50C46194600F14803CDE9014200931A
:1039600000F1440200F158032030FEF729FD04B0B5
:1039700010BD00F00CB8014600F016B86822002116
:1039800000F0D4B903460020C3E90000704707B532
:1039900000F128030190009300F108030020FDF7D7
:1039A00007FF03B05DF804FB02460B4600F1280157
:1039B0000830FDF75BBF30B59FB0342200210546CB
:1039C00001A800F0B3F901A8FEF730FA049C012C1D
:1039D0001ED921460EA8FDF7E9FF18B140F20553A4
:1039E00098420ED100230EAA52F8041B481C0AD19B
:1039F0001EAA02EB830321460EA843F8405CFEF7A3
:103A000063F81FB030BDA94205D001339C42EBD111
:103A100040F20250F5E740F20350F2E70020704711
:103A200013B54FF0FF33002402216846CDE900347E
:103A3000FDF7BCFF034630B140F2055290420FD172
:103A40000122009401920098411C03D0FEF7A8F8CF
:103A5000034628B10198421C02D0FEF7A1F80346A4
:103A6000184602B010BD01221A7070471FB500231E
:103A7000CDE90033CDE90213D0F83032044693B9D2
:103A8000D0E98A329A420ED26946FEF717F9D4F885
:103A9000300270B141F2070240F20123904208BFA8
:103AA000184604B010BDA37833B1E07800F20220CC
:103AB000F7E740F20120F4E740F20220F1E737B5E2
:103AC0000C46054611462046FEF7E6FD48B9694614
:103AD0002846FEF7B9F820B9019BC4F82452C4F86F
:103AE000283203B030BD38B500F5DE7204460D460D
:103AF000202300F5AA712C30FDF73EF9D4F83032BE
:103B00001BB9D4E98A329A4203D3A07800B1E07895
:103B100038BD29462046FEF7D1F8EFE738B50C4608
:103B200011460546FEF704FA28B12946204600F062
:103B300005F9002038BD40F20240FBE738B50D46DC
:103B400011460446FEF7F4F980B940F2024038BD50
:103B5000E158013114D104339A42F9D8AB0707D1A7
:103B6000022329462046FCF7A5FE05E00023F3E7E3
:103B700029462046FCF7C6FE0028E6D00020E6E7EE
:103B800040F20340E3E70220704738B541EA000302
:103B9000C3F30C0304460D46A3B9FEF7C9F910B9E7
:103BA00040F2024038BD2544204604F50054FCF79D
:103BB00073FEA54202D00028F6D1F1E70028EFD02D
:103BC0000020EFE740F20440ECE7436813B941609E
:103BD00070475B685A68012AFBD159607047836857
:103BE00013B9816070475B685A68012AFBD159603C
:103BF0007047C369032B9FBF00EB83020133D16081
:103C0000C3617047C369042B14D84FF09842116CFC
:103C1000C902FCD504339B0013650168103B116099
:103C20004168116050F8081F11604FF0984203443A
:103C3000984200D1704750F8041F1160F8E7B0F5C2
:103C4000802F22D010D8B0F5003F20D007D818B36D
:103C5000B0F5803F08BF482018BF01207047B0F57D
:103C6000403F08BF2C20F7E7B0F5302F11D007D820
:103C7000B0F5E02F0FD0B0F5202F08BF1020EBE7F4
:103C8000B0F57F0F08BF0620E6E74B2070472A20DB
:103C9000704711207047212070472422002100F036
:103CA00045B870B515460E4624220021044600F0A2
:103CB0003DF825F04003802B02D0B5F5807F08D178
:103CC0002046314640F8045BEA0800F037F800204F
:103CD00070BD6FF01F00FBE70139024410B5904240
:103CE00001D1002005E0037811F8014FA34201D073
:103CF000181B10BD0130F2E7884210B501EB020439
:103D000002D98442234607D8431EA14208D011F8A5
:103D1000012B03F8012FF8E7024401468A4200D143
:103D200010BD13F8014D02F8014DF7E702440346B8
:103D3000934200D1704703F8011BF9E70A44431E80
:103D4000914200D1704710B511F8014B914203F830
:103D5000014FF9D110BD000000000000000000007C
:103D6000F8B500BFF8BC08BC9E467047F8B500BF68
:103D7000F8BC08BC9E467047000000000000000030
:103D80000000000000000000000000000000000033
:103D90000000000000000000000000000000000023
:103DA000B814B6F1E0CFF3ADB7DD25C9FA79B71392
:103DB0000000000013B779FAC925DDB7ADF3CFE0F5
:103DC000F1B614B801020000000000000440000039
:103DD000400000000300040200000000000000009A
:103DE00000000000000000000000000000000000D3
:103DF00000000000000000000000000000000000C3
:103E00000000000007B0CD5E0200000003000402C5
:103E1000084000000060000800000808F1040100EC
:103E200075260008792600086D0300089926000809
:103E3000C92600086C3F0008F92600086F27000813
:103E400000000000C1050008B9050008FD0707FDD6
:103E50005D0A00088D0A0008210B0008752700087C
:103E6000EB17A6030201000003000000FA0606FAA1
:103E70000F04000003000000F40A0AF40505000026
:103E800001000000EB17A65E0A030000030000001B
:103E9000F50909F50307000001000000F60808F61F
:103EA0000608000000000000FE0101FE08080000F6
:103EB00000000000FD0303FD0C08000000000000EE
:103EC000FD0707FD1308000000000000F90707F9CF
:103ED0001009000002000000F30B0BF3110A0000B0
:103EE00003000000F70A0AF7120B000003000000AD
:103EF000FC0404FC0D0C0000030000008000000026
:103F000000000000000000000000000000000000B1
:103F100000000000000000000000000000000000A1
:103F20000000000000000000000000000000000091
:103F30000000000000000000000000006A09E667C1
:103F4000BB67AE853C6EF372A54FF53A510E527FBA
:103F50009B05688C1F83D9AB5BE0CD19006004081A
:103F6000000003000040040800C00200000100003F
:103F70002D1E0008491C0008791C0008C51D0008FA
:103F8000091E0008C91A0008AD190008B739000851
:103F9000BF3A00086D3A0008391D0008851F000867
:103FA0001D3B00083D3B00088B3B0008873B000899
:103FB000100203002800000028000000002000007C
:103FC00000000800000000000400000000000040A5
:103FD000010000000200000000600408000003006F
:083FE0000040040800C00200CB
:0C3FE800F43F000810100020040000004E
:103FF40031090008690900081D020008F5010008DC
:04000005080001717D
:00000001FF
